{
  "abi": [
    {
      "type": "constructor",
      "inputs": [
        {
          "name": "asset_",
          "type": "address",
          "internalType": "contract ERC20"
        },
        {
          "name": "reward_",
          "type": "address",
          "internalType": "contract ERC20"
        },
        {
          "name": "cToken_",
          "type": "address",
          "internalType": "contract ICERC20"
        },
        {
          "name": "comptroller_",
          "type": "address",
          "internalType": "contract IComptroller"
        },
        {
          "name": "manager_",
          "type": "address",
          "internalType": "address"
        },
        {
          "name": "nftToken_",
          "type": "address",
          "internalType": "contract IERC721"
        }
      ],
      "stateMutability": "nonpayable"
    },
    {
      "type": "function",
      "name": "ComputeCaller",
      "inputs": [],
      "outputs": [
        {
          "name": "",
          "type": "address",
          "internalType": "address"
        }
      ],
      "stateMutability": "view"
    },
    {
      "type": "function",
      "name": "DOMAIN_SEPARATOR",
      "inputs": [],
      "outputs": [
        {
          "name": "",
          "type": "bytes32",
          "internalType": "bytes32"
        }
      ],
      "stateMutability": "view"
    },
    {
      "type": "function",
      "name": "LINK",
      "inputs": [],
      "outputs": [
        {
          "name": "",
          "type": "address",
          "internalType": "address"
        }
      ],
      "stateMutability": "view"
    },
    {
      "type": "function",
      "name": "addToken",
      "inputs": [
        {
          "name": "asset_",
          "type": "address",
          "internalType": "contract ERC20"
        },
        {
          "name": "cToken_",
          "type": "address",
          "internalType": "contract ICERC20"
        }
      ],
      "outputs": [],
      "stateMutability": "nonpayable"
    },
    {
      "type": "function",
      "name": "allowance",
      "inputs": [
        {
          "name": "",
          "type": "address",
          "internalType": "address"
        },
        {
          "name": "",
          "type": "address",
          "internalType": "address"
        }
      ],
      "outputs": [
        {
          "name": "",
          "type": "uint256",
          "internalType": "uint256"
        }
      ],
      "stateMutability": "view"
    },
    {
      "type": "function",
      "name": "approve",
      "inputs": [
        {
          "name": "spender",
          "type": "address",
          "internalType": "address"
        },
        {
          "name": "amount",
          "type": "uint256",
          "internalType": "uint256"
        }
      ],
      "outputs": [
        {
          "name": "",
          "type": "bool",
          "internalType": "bool"
        }
      ],
      "stateMutability": "nonpayable"
    },
    {
      "type": "function",
      "name": "asset",
      "inputs": [],
      "outputs": [
        {
          "name": "",
          "type": "address",
          "internalType": "contract ERC20"
        }
      ],
      "stateMutability": "view"
    },
    {
      "type": "function",
      "name": "authorizedExecutor",
      "inputs": [],
      "outputs": [
        {
          "name": "",
          "type": "address",
          "internalType": "address"
        }
      ],
      "stateMutability": "view"
    },
    {
      "type": "function",
      "name": "balanceOf",
      "inputs": [
        {
          "name": "",
          "type": "address",
          "internalType": "address"
        }
      ],
      "outputs": [
        {
          "name": "",
          "type": "uint256",
          "internalType": "uint256"
        }
      ],
      "stateMutability": "view"
    },
    {
      "type": "function",
      "name": "cToken",
      "inputs": [],
      "outputs": [
        {
          "name": "",
          "type": "address",
          "internalType": "contract ICERC20"
        }
      ],
      "stateMutability": "view"
    },
    {
      "type": "function",
      "name": "checkUpkeep",
      "inputs": [
        {
          "name": "",
          "type": "bytes",
          "internalType": "bytes"
        }
      ],
      "outputs": [
        {
          "name": "upkeepNeeded",
          "type": "bool",
          "internalType": "bool"
        },
        {
          "name": "performData",
          "type": "bytes",
          "internalType": "bytes"
        }
      ],
      "stateMutability": "view"
    },
    {
      "type": "function",
      "name": "comptroller",
      "inputs": [],
      "outputs": [
        {
          "name": "",
          "type": "address",
          "internalType": "contract IComptroller"
        }
      ],
      "stateMutability": "view"
    },
    {
      "type": "function",
      "name": "convertToAssets",
      "inputs": [
        {
          "name": "shares",
          "type": "uint256",
          "internalType": "uint256"
        }
      ],
      "outputs": [
        {
          "name": "",
          "type": "uint256",
          "internalType": "uint256"
        }
      ],
      "stateMutability": "view"
    },
    {
      "type": "function",
      "name": "convertToShares",
      "inputs": [
        {
          "name": "assets",
          "type": "uint256",
          "internalType": "uint256"
        }
      ],
      "outputs": [
        {
          "name": "",
          "type": "uint256",
          "internalType": "uint256"
        }
      ],
      "stateMutability": "view"
    },
    {
      "type": "function",
      "name": "decimals",
      "inputs": [],
      "outputs": [
        {
          "name": "",
          "type": "uint8",
          "internalType": "uint8"
        }
      ],
      "stateMutability": "view"
    },
    {
      "type": "function",
      "name": "deposit",
      "inputs": [
        {
          "name": "assets",
          "type": "uint256",
          "internalType": "uint256"
        },
        {
          "name": "receiver",
          "type": "address",
          "internalType": "address"
        }
      ],
      "outputs": [
        {
          "name": "shares",
          "type": "uint256",
          "internalType": "uint256"
        }
      ],
      "stateMutability": "nonpayable"
    },
    {
      "type": "function",
      "name": "getUserVaultDeposit",
      "inputs": [
        {
          "name": "user_",
          "type": "address",
          "internalType": "address"
        },
        {
          "name": "nftId_",
          "type": "uint256",
          "internalType": "uint256"
        }
      ],
      "outputs": [
        {
          "name": "",
          "type": "uint256",
          "internalType": "uint256"
        }
      ],
      "stateMutability": "view"
    },
    {
      "type": "function",
      "name": "manager",
      "inputs": [],
      "outputs": [
        {
          "name": "",
          "type": "address",
          "internalType": "address"
        }
      ],
      "stateMutability": "view"
    },
    {
      "type": "function",
      "name": "maxDeposit",
      "inputs": [
        {
          "name": "",
          "type": "address",
          "internalType": "address"
        }
      ],
      "outputs": [
        {
          "name": "",
          "type": "uint256",
          "internalType": "uint256"
        }
      ],
      "stateMutability": "view"
    },
    {
      "type": "function",
      "name": "maxMint",
      "inputs": [
        {
          "name": "",
          "type": "address",
          "internalType": "address"
        }
      ],
      "outputs": [
        {
          "name": "",
          "type": "uint256",
          "internalType": "uint256"
        }
      ],
      "stateMutability": "view"
    },
    {
      "type": "function",
      "name": "maxRedeem",
      "inputs": [
        {
          "name": "owner_",
          "type": "address",
          "internalType": "address"
        }
      ],
      "outputs": [
        {
          "name": "",
          "type": "uint256",
          "internalType": "uint256"
        }
      ],
      "stateMutability": "view"
    },
    {
      "type": "function",
      "name": "maxWithdraw",
      "inputs": [
        {
          "name": "owner_",
          "type": "address",
          "internalType": "address"
        }
      ],
      "outputs": [
        {
          "name": "",
          "type": "uint256",
          "internalType": "uint256"
        }
      ],
      "stateMutability": "view"
    },
    {
      "type": "function",
      "name": "mint",
      "inputs": [
        {
          "name": "shares",
          "type": "uint256",
          "internalType": "uint256"
        },
        {
          "name": "receiver",
          "type": "address",
          "internalType": "address"
        }
      ],
      "outputs": [
        {
          "name": "assets",
          "type": "uint256",
          "internalType": "uint256"
        }
      ],
      "stateMutability": "nonpayable"
    },
    {
      "type": "function",
      "name": "name",
      "inputs": [],
      "outputs": [
        {
          "name": "",
          "type": "string",
          "internalType": "string"
        }
      ],
      "stateMutability": "view"
    },
    {
      "type": "function",
      "name": "nftIdOwner",
      "inputs": [
        {
          "name": "",
          "type": "address",
          "internalType": "address"
        }
      ],
      "outputs": [
        {
          "name": "",
          "type": "uint256",
          "internalType": "uint256"
        }
      ],
      "stateMutability": "view"
    },
    {
      "type": "function",
      "name": "nftToken",
      "inputs": [],
      "outputs": [
        {
          "name": "",
          "type": "address",
          "internalType": "contract IERC721"
        }
      ],
      "stateMutability": "view"
    },
    {
      "type": "function",
      "name": "nonces",
      "inputs": [
        {
          "name": "",
          "type": "address",
          "internalType": "address"
        }
      ],
      "outputs": [
        {
          "name": "",
          "type": "uint256",
          "internalType": "uint256"
        }
      ],
      "stateMutability": "view"
    },
    {
      "type": "function",
      "name": "performUpkeep",
      "inputs": [
        {
          "name": "",
          "type": "bytes",
          "internalType": "bytes"
        }
      ],
      "outputs": [],
      "stateMutability": "nonpayable"
    },
    {
      "type": "function",
      "name": "permit",
      "inputs": [
        {
          "name": "owner",
          "type": "address",
          "internalType": "address"
        },
        {
          "name": "spender",
          "type": "address",
          "internalType": "address"
        },
        {
          "name": "value",
          "type": "uint256",
          "internalType": "uint256"
        },
        {
          "name": "deadline",
          "type": "uint256",
          "internalType": "uint256"
        },
        {
          "name": "v",
          "type": "uint8",
          "internalType": "uint8"
        },
        {
          "name": "r",
          "type": "bytes32",
          "internalType": "bytes32"
        },
        {
          "name": "s",
          "type": "bytes32",
          "internalType": "bytes32"
        }
      ],
      "outputs": [],
      "stateMutability": "nonpayable"
    },
    {
      "type": "function",
      "name": "previewDeposit",
      "inputs": [
        {
          "name": "assets",
          "type": "uint256",
          "internalType": "uint256"
        }
      ],
      "outputs": [
        {
          "name": "",
          "type": "uint256",
          "internalType": "uint256"
        }
      ],
      "stateMutability": "view"
    },
    {
      "type": "function",
      "name": "previewMint",
      "inputs": [
        {
          "name": "shares",
          "type": "uint256",
          "internalType": "uint256"
        }
      ],
      "outputs": [
        {
          "name": "",
          "type": "uint256",
          "internalType": "uint256"
        }
      ],
      "stateMutability": "view"
    },
    {
      "type": "function",
      "name": "previewRedeem",
      "inputs": [
        {
          "name": "shares",
          "type": "uint256",
          "internalType": "uint256"
        }
      ],
      "outputs": [
        {
          "name": "",
          "type": "uint256",
          "internalType": "uint256"
        }
      ],
      "stateMutability": "view"
    },
    {
      "type": "function",
      "name": "previewWithdraw",
      "inputs": [
        {
          "name": "assets",
          "type": "uint256",
          "internalType": "uint256"
        }
      ],
      "outputs": [
        {
          "name": "",
          "type": "uint256",
          "internalType": "uint256"
        }
      ],
      "stateMutability": "view"
    },
    {
      "type": "function",
      "name": "redeem",
      "inputs": [
        {
          "name": "shares",
          "type": "uint256",
          "internalType": "uint256"
        },
        {
          "name": "receiver",
          "type": "address",
          "internalType": "address"
        },
        {
          "name": "owner",
          "type": "address",
          "internalType": "address"
        }
      ],
      "outputs": [
        {
          "name": "assets",
          "type": "uint256",
          "internalType": "uint256"
        }
      ],
      "stateMutability": "nonpayable"
    },
    {
      "type": "function",
      "name": "reward",
      "inputs": [],
      "outputs": [
        {
          "name": "",
          "type": "address",
          "internalType": "contract ERC20"
        }
      ],
      "stateMutability": "view"
    },
    {
      "type": "function",
      "name": "setAuthorizedExecutor",
      "inputs": [
        {
          "name": "authorizedExecutor_",
          "type": "address",
          "internalType": "address"
        }
      ],
      "outputs": [],
      "stateMutability": "nonpayable"
    },
    {
      "type": "function",
      "name": "setComputeCaller",
      "inputs": [
        {
          "name": "computeCaller_",
          "type": "address",
          "internalType": "address"
        }
      ],
      "outputs": [],
      "stateMutability": "nonpayable"
    },
    {
      "type": "function",
      "name": "setRoute",
      "inputs": [
        {
          "name": "poolFee1_",
          "type": "uint24",
          "internalType": "uint24"
        },
        {
          "name": "tokenMid_",
          "type": "address",
          "internalType": "address"
        },
        {
          "name": "poolFee2_",
          "type": "uint24",
          "internalType": "uint24"
        }
      ],
      "outputs": [],
      "stateMutability": "nonpayable"
    },
    {
      "type": "function",
      "name": "swapPath",
      "inputs": [],
      "outputs": [
        {
          "name": "",
          "type": "bytes",
          "internalType": "bytes"
        }
      ],
      "stateMutability": "view"
    },
    {
      "type": "function",
      "name": "swapRouter",
      "inputs": [],
      "outputs": [
        {
          "name": "",
          "type": "address",
          "internalType": "contract ISwapRouter"
        }
      ],
      "stateMutability": "view"
    },
    {
      "type": "function",
      "name": "symbol",
      "inputs": [],
      "outputs": [
        {
          "name": "",
          "type": "string",
          "internalType": "string"
        }
      ],
      "stateMutability": "view"
    },
    {
      "type": "function",
      "name": "totalAssets",
      "inputs": [],
      "outputs": [
        {
          "name": "",
          "type": "uint256",
          "internalType": "uint256"
        }
      ],
      "stateMutability": "view"
    },
    {
      "type": "function",
      "name": "totalSupply",
      "inputs": [],
      "outputs": [
        {
          "name": "",
          "type": "uint256",
          "internalType": "uint256"
        }
      ],
      "stateMutability": "view"
    },
    {
      "type": "function",
      "name": "transfer",
      "inputs": [
        {
          "name": "to",
          "type": "address",
          "internalType": "address"
        },
        {
          "name": "amount",
          "type": "uint256",
          "internalType": "uint256"
        }
      ],
      "outputs": [
        {
          "name": "",
          "type": "bool",
          "internalType": "bool"
        }
      ],
      "stateMutability": "nonpayable"
    },
    {
      "type": "function",
      "name": "transferFrom",
      "inputs": [
        {
          "name": "from",
          "type": "address",
          "internalType": "address"
        },
        {
          "name": "to",
          "type": "address",
          "internalType": "address"
        },
        {
          "name": "amount",
          "type": "uint256",
          "internalType": "uint256"
        }
      ],
      "outputs": [
        {
          "name": "",
          "type": "bool",
          "internalType": "bool"
        }
      ],
      "stateMutability": "nonpayable"
    },
    {
      "type": "function",
      "name": "userVaultDeposit",
      "inputs": [
        {
          "name": "",
          "type": "address",
          "internalType": "address"
        },
        {
          "name": "",
          "type": "uint256",
          "internalType": "uint256"
        }
      ],
      "outputs": [
        {
          "name": "",
          "type": "uint256",
          "internalType": "uint256"
        }
      ],
      "stateMutability": "view"
    },
    {
      "type": "function",
      "name": "withdraw",
      "inputs": [
        {
          "name": "assets",
          "type": "uint256",
          "internalType": "uint256"
        },
        {
          "name": "receiver",
          "type": "address",
          "internalType": "address"
        },
        {
          "name": "owner",
          "type": "address",
          "internalType": "address"
        }
      ],
      "outputs": [
        {
          "name": "shares",
          "type": "uint256",
          "internalType": "uint256"
        }
      ],
      "stateMutability": "nonpayable"
    },
    {
      "type": "event",
      "name": "Approval",
      "inputs": [
        {
          "name": "owner",
          "type": "address",
          "indexed": true,
          "internalType": "address"
        },
        {
          "name": "spender",
          "type": "address",
          "indexed": true,
          "internalType": "address"
        },
        {
          "name": "amount",
          "type": "uint256",
          "indexed": false,
          "internalType": "uint256"
        }
      ],
      "anonymous": false
    },
    {
      "type": "event",
      "name": "Deposit",
      "inputs": [
        {
          "name": "caller",
          "type": "address",
          "indexed": true,
          "internalType": "address"
        },
        {
          "name": "owner",
          "type": "address",
          "indexed": true,
          "internalType": "address"
        },
        {
          "name": "assets",
          "type": "uint256",
          "indexed": false,
          "internalType": "uint256"
        },
        {
          "name": "shares",
          "type": "uint256",
          "indexed": false,
          "internalType": "uint256"
        }
      ],
      "anonymous": false
    },
    {
      "type": "event",
      "name": "HarvestComp",
      "inputs": [
        {
          "name": "_owner",
          "type": "address",
          "indexed": false,
          "internalType": "address"
        },
        {
          "name": "_reward",
          "type": "uint256",
          "indexed": false,
          "internalType": "uint256"
        },
        {
          "name": "_linkToken",
          "type": "uint256",
          "indexed": false,
          "internalType": "uint256"
        }
      ],
      "anonymous": false
    },
    {
      "type": "event",
      "name": "Transfer",
      "inputs": [
        {
          "name": "from",
          "type": "address",
          "indexed": true,
          "internalType": "address"
        },
        {
          "name": "to",
          "type": "address",
          "indexed": true,
          "internalType": "address"
        },
        {
          "name": "amount",
          "type": "uint256",
          "indexed": false,
          "internalType": "uint256"
        }
      ],
      "anonymous": false
    },
    {
      "type": "event",
      "name": "Withdraw",
      "inputs": [
        {
          "name": "caller",
          "type": "address",
          "indexed": true,
          "internalType": "address"
        },
        {
          "name": "receiver",
          "type": "address",
          "indexed": true,
          "internalType": "address"
        },
        {
          "name": "owner",
          "type": "address",
          "indexed": true,
          "internalType": "address"
        },
        {
          "name": "assets",
          "type": "uint256",
          "indexed": false,
          "internalType": "uint256"
        },
        {
          "name": "shares",
          "type": "uint256",
          "indexed": false,
          "internalType": "uint256"
        }
      ],
      "anonymous": false
    },
    {
      "type": "error",
      "name": "COMPOUND_ERROR",
      "inputs": [
        {
          "name": "errorCode",
          "type": "uint256",
          "internalType": "uint256"
        }
      ]
    },
    {
      "type": "error",
      "name": "INVALID_ACCESS",
      "inputs": []
    },
    {
      "type": "error",
      "name": "INVALID_ACCESS_ERROR",
      "inputs": []
    },
    {
      "type": "error",
      "name": "INVALID_FEE_ERROR",
      "inputs": []
    },
    {
      "type": "error",
      "name": "MIN_AMOUNT_ERROR",
      "inputs": []
    },
    {
      "type": "error",
      "name": "RATE_TOO_HIGH",
      "inputs": []
    }
  ],
  "bytecode": {
    "object": "0x6101c060405273e592427a0aece92de3edee1f18e0157c058615646101a0523480156200002b57600080fd5b5060405162003982380380620039828339810160408190526200004e91620003d6565b856200005a8162000211565b6200006588620002a4565b8181846001600160a01b031663313ce5676040518163ffffffff1660e01b8152600401602060405180830381865afa158015620000a6573d6000803e3d6000fd5b505050506040513d601f19601f82011682018060405250810190620000cc91906200046a565b6000620000da84826200053b565b506001620000e983826200053b565b5060ff81166080524660a052620000ff62000321565b60c052505050506001600160a01b0391821660e052508581166101405284811661016052838116610180528216610120526040805160018082528183019092526000916020828101908036833701905050905061016051816000815181106200016c576200016c62000607565b6001600160a01b03928316602091820292909201015261018051604051631853304760e31b815291169063c299823890620001ac9084906004016200061d565b6000604051808303816000875af1158015620001cc573d6000803e3d6000fd5b505050506040513d6000823e601f3d908101601f19168201604052620001f691908101906200069f565b50506001600160a01b03166101005250620008ed9350505050565b6060816001600160a01b03166395d89b416040518163ffffffff1660e01b8152600401600060405180830381865afa15801562000252573d6000803e3d6000fd5b505050506040513d6000823e601f3d908101601f191682016040526200027c919081019062000775565b6040516020016200028e919062000813565b6040516020818303038152906040529050919050565b6060816001600160a01b03166395d89b416040518163ffffffff1660e01b8152600401600060405180830381865afa158015620002e5573d6000803e3d6000fd5b505050506040513d6000823e601f3d908101601f191682016040526200030f919081019062000775565b6040516020016200028e919062000843565b60007f8b73c3c69bb8fe3d512ecc4cf759cc79239f7b179b0ffacaa9a75d522b39400f60006040516200035591906200086f565b6040805191829003822060208301939093528101919091527fc89efdaa54c0f20c7adf612882df0950f5a951637e0307cdcb4c672f298b8bc660608201524660808201523060a082015260c00160405160208183030381529060405280519060200120905090565b6001600160a01b0381168114620003d357600080fd5b50565b60008060008060008060c08789031215620003f057600080fd5b8651620003fd81620003bd565b60208801519096506200041081620003bd565b60408801519095506200042381620003bd565b60608801519094506200043681620003bd565b60808801519093506200044981620003bd565b60a08801519092506200045c81620003bd565b809150509295509295509295565b6000602082840312156200047d57600080fd5b815160ff811681146200048f57600080fd5b9392505050565b634e487b7160e01b600052604160045260246000fd5b600181811c90821680620004c157607f821691505b602082108103620004e257634e487b7160e01b600052602260045260246000fd5b50919050565b601f8211156200053657600081815260208120601f850160051c81016020861015620005115750805b601f850160051c820191505b8181101562000532578281556001016200051d565b5050505b505050565b81516001600160401b0381111562000557576200055762000496565b6200056f81620005688454620004ac565b84620004e8565b602080601f831160018114620005a757600084156200058e5750858301515b600019600386901b1c1916600185901b17855562000532565b600085815260208120601f198616915b82811015620005d857888601518255948401946001909101908401620005b7565b5085821015620005f75787850151600019600388901b60f8161c191681555b5050505050600190811b01905550565b634e487b7160e01b600052603260045260246000fd5b6020808252825182820181905260009190848201906040850190845b81811015620006605783516001600160a01b03168352928401929184019160010162000639565b50909695505050505050565b604051601f8201601f191681016001600160401b038111828210171562000697576200069762000496565b604052919050565b60006020808385031215620006b357600080fd5b82516001600160401b0380821115620006cb57600080fd5b818501915085601f830112620006e057600080fd5b815181811115620006f557620006f562000496565b8060051b9150620007088483016200066c565b81815291830184019184810190888411156200072357600080fd5b938501935b83851015620007435784518252938501939085019062000728565b98975050505050505050565b60005b838110156200076c57818101518382015260200162000752565b50506000910152565b6000602082840312156200078857600080fd5b81516001600160401b0380821115620007a057600080fd5b818401915084601f830112620007b557600080fd5b815181811115620007ca57620007ca62000496565b620007df601f8201601f19166020016200066c565b9150808252856020828501011115620007f757600080fd5b6200080a8160208401602086016200074f565b50949350505050565b6521b7b6b82b1960d11b815260008251620008368160068501602087016200074f565b9190910160060192915050565b61632d60f01b815260008251620008628160028501602087016200074f565b9190910160020192915050565b60008083546200087f81620004ac565b600182811680156200089a5760018114620008b057620008e1565b60ff1984168752821515830287019450620008e1565b8760005260208060002060005b85811015620008d85781548a820152908401908201620008bd565b50505082870194505b50929695505050505050565b60805160a05160c05160e05161010051610120516101405161016051610180516101a051612f4062000a426000396000818161060301528181610f3501526126770152600081816104b401528181610a4901528181610bbf0152611b640152600081816104db0152818161075e01528181610a1e0152818161137f0152818161176e01528181611b0e01528181611ec401528181611f020152611fba01526000818161036701528181610de401528181610e8001528181610f6501528181611be601526125ea01526000818161043101528181610b2601528181610d540152611847015260008181610650015281816114700152611a580152600081816103e201528181610cc701528181610e2501528181610ed501528181610fec015281816111e70152818161133301528181611d250152611ea2015260006109e5015260006109b5015260006103a10152612f406000f3fe608060405234801561001057600080fd5b50600436106102955760003560e01c806370a0823111610167578063c6e6f592116100ce578063dd62ed3e11610087578063dd62ed3e146106ab578063df5af13f146106d6578063e00886cb146106de578063e8dea92414610709578063ef8b30f71461071c578063fd3c48401461072f57600080fd5b8063c6e6f59214610625578063ce96cb7714610638578063d06fcba81461064b578063d188c04914610672578063d505accf14610685578063d905777e1461069857600080fd5b8063b3d7f6b911610120578063b3d7f6b9146105b2578063b460af94146105c5578063ba087652146105d8578063baac8746146105eb578063c31c9c07146105fe578063c63d75b61461040457600080fd5b806370a08231146105315780637ecebe001461055157806383df238a1461057157806394bf804d1461058457806395d89b4114610597578063a9059cbb1461059f57600080fd5b80633644e5151161020b57806352d747ad116101c457806352d747ad146104665780635476bd721461049c5780635fe3b567146104af57806369e527da146104d65780636e04ff0d146104fd5780636e553f651461051e57600080fd5b80633644e515146103d557806338d52e0f146103dd578063402d267d146104045780634585e33b14610417578063481c6a751461042c5780634cdad5061461045357600080fd5b806313dd495b1161025d57806313dd495b1461031357806318160ddd1461033e5780631b6b6d2314610347578063228cb7331461036257806323b872dd14610389578063313ce5671461039c57600080fd5b806301e1d1141461029a57806306fdde03146102b557806307a2d13a146102ca578063095ea7b3146102dd5780630a28a47714610300575b600080fd5b6102a261074f565b6040519081526020015b60405180910390f35b6102bd610789565b6040516102ac91906127f5565b6102a26102d8366004612808565b610817565b6102f06102eb366004612839565b610844565b60405190151581526020016102ac565b6102a261030e366004612808565b6108b1565b600654610326906001600160a01b031681565b6040516001600160a01b0390911681526020016102ac565b6102a260025481565b61032673326c977e6efc84e512bb9c30f76e30c160ed06fb81565b6103267f000000000000000000000000000000000000000000000000000000000000000081565b6102f0610397366004612865565b6108d1565b6103c37f000000000000000000000000000000000000000000000000000000000000000081565b60405160ff90911681526020016102ac565b6102a26109b1565b6103267f000000000000000000000000000000000000000000000000000000000000000081565b6102a26104123660046128a6565b610a07565b61042a6104253660046128c3565b610acc565b005b6103267f000000000000000000000000000000000000000000000000000000000000000081565b6102a2610461366004612808565b610b10565b6102a2610474366004612839565b6001600160a01b03919091166000908152600a60209081526040808320938352929052205490565b61042a6104aa366004612935565b610b1b565b6103267f000000000000000000000000000000000000000000000000000000000000000081565b6103267f000000000000000000000000000000000000000000000000000000000000000081565b61051061050b3660046128c3565b610c43565b6040516102ac92919061296e565b6102a261052c366004612989565b610c6a565b6102a261053f3660046128a6565b60036020526000908152604090205481565b6102a261055f3660046128a6565b60056020526000908152604090205481565b61042a61057f3660046129c6565b610d49565b6102a2610592366004612989565b610fd2565b6102bd61106e565b6102f06105ad366004612839565b61107b565b6102a26105c0366004612808565b6110e1565b6102a26105d3366004612a0b565b611100565b6102a26105e6366004612a0b565b61120e565b600754610326906001600160a01b031681565b6103267f000000000000000000000000000000000000000000000000000000000000000081565b6102a2610633366004612808565b61135a565b6102a26106463660046128a6565b61137a565b6103267f000000000000000000000000000000000000000000000000000000000000000081565b61042a6106803660046128a6565b61143e565b61042a610693366004612a4d565b611525565b6102a26106a63660046128a6565b611769565b6102a26106b9366004612935565b600460209081526000928352604080842090915290825290205481565b6102bd61182f565b6102a26106ec366004612839565b600a60209081526000928352604080842090915290825290205481565b61042a6107173660046128a6565b61183c565b6102a261072a366004612808565b6118a7565b6102a261073d3660046128a6565b60096020526000908152604090205481565b60006107846001600160a01b037f000000000000000000000000000000000000000000000000000000000000000016306118b2565b905090565b6000805461079690612ac4565b80601f01602080910402602001604051908101604052809291908181526020018280546107c290612ac4565b801561080f5780601f106107e45761010080835404028352916020019161080f565b820191906000526020600020905b8154815290600101906020018083116107f257829003601f168201915b505050505081565b600254600090801561083b5761083661082e61074f565b849083611930565b61083d565b825b9392505050565b3360008181526004602090815260408083206001600160a01b038716808552925280832085905551919290917f8c5be1e5ebec7d5bd14f71427d1e84f3dd0314c0f7b2291e5b200ac8c7c3b9259061089f9086815260200190565b60405180910390a35060015b92915050565b600254600090801561083b57610836816108c961074f565b85919061194e565b6001600160a01b0383166000908152600460209081526040808320338452909152812054600019811461092d576109088382612b14565b6001600160a01b03861660009081526004602090815260408083203384529091529020555b6001600160a01b03851660009081526003602052604081208054859290610955908490612b14565b90915550506001600160a01b0380851660008181526003602052604090819020805487019055519091871690600080516020612eeb8339815191529061099e9087815260200190565b60405180910390a3506001949350505050565b60007f000000000000000000000000000000000000000000000000000000000000000046146109e257610784611974565b507f000000000000000000000000000000000000000000000000000000000000000090565b60405163731f0c2b60e01b81526001600160a01b037f0000000000000000000000000000000000000000000000000000000000000000811660048301526000917f00000000000000000000000000000000000000000000000000000000000000009091169063731f0c2b90602401602060405180830381865afa158015610a92573d6000803e3d6000fd5b505050506040513d601f19601f82011682018060405250810190610ab69190612b27565b15610ac357506000919050565b50600019919050565b6006546001600160a01b03163314610af757604051636fb33f1d60e01b815260040160405180910390fd5b610aff611a0e565b15610b0c57610b0c611a26565b5050565b60006108ab82610817565b336001600160a01b037f00000000000000000000000000000000000000000000000000000000000000001614610b645760405163eda3689960e01b815260040160405180910390fd5b604080516001808252818301909252600091602080830190803683370190505090508181600081518110610b9a57610b9a612b5f565b6001600160a01b039283166020918202929092010152604051631853304760e31b81527f00000000000000000000000000000000000000000000000000000000000000009091169063c299823890610bf6908490600401612bb9565b6000604051808303816000875af1158015610c15573d6000803e3d6000fd5b505050506040513d6000823e601f3d908101601f19168201604052610c3d9190810190612bcc565b50505050565b60006060610c4f611a0e565b91506040518060200160405280600081525090509250929050565b6000610c75836118a7565b905080600003610cba5760405162461bcd60e51b815260206004820152600b60248201526a5a45524f5f53484152455360a81b60448201526064015b60405180910390fd5b610cef6001600160a01b037f000000000000000000000000000000000000000000000000000000000000000016333086611da6565b610cf98282611e3b565b60408051848152602081018390526001600160a01b0384169133917fdcbc1c05240f31ff3ad067ef1ee35ce4997762752e3a095284754544f4c709d7910160405180910390a36108ab8382611e95565b336001600160a01b037f00000000000000000000000000000000000000000000000000000000000000001614610d925760405163eda3689960e01b815260040160405180910390fd5b8262ffffff16600003610db8576040516346bec1d760e11b815260040160405180910390fd5b62ffffff81161580610dd157506001600160a01b038216155b15610e72576040516001600160601b03197f0000000000000000000000000000000000000000000000000000000000000000606090811b821660208401526001600160e81b031960e887901b1660348401527f0000000000000000000000000000000000000000000000000000000000000000901b166037820152604b0160405160208183030381529060405260089081610e6c9190612cd8565b50610f1e565b6040516001600160601b03197f0000000000000000000000000000000000000000000000000000000000000000606090811b821660208401526001600160e81b031960e887811b8216603486015286831b8416603786015285901b16604b8401527f0000000000000000000000000000000000000000000000000000000000000000901b16604e82015260620160405160208183030381529060405260089081610f1c9190612cd8565b505b60405163095ea7b360e01b81526001600160a01b037f00000000000000000000000000000000000000000000000000000000000000008116600483015260001960248301527f0000000000000000000000000000000000000000000000000000000000000000169063095ea7b3906044016020604051808303816000875af1158015610fae573d6000803e3d6000fd5b505050506040513d601f19601f82011682018060405250810190610c3d9190612b27565b6000610fdd836110e1565b90506110146001600160a01b037f000000000000000000000000000000000000000000000000000000000000000016333084611da6565b61101e8284611e3b565b60408051828152602081018590526001600160a01b0384169133917fdcbc1c05240f31ff3ad067ef1ee35ce4997762752e3a095284754544f4c709d7910160405180910390a36108ab8184611e95565b6001805461079690612ac4565b3360009081526003602052604081208054839190839061109c908490612b14565b90915550506001600160a01b03831660008181526003602052604090819020805485019055513390600080516020612eeb8339815191529061089f9086815260200190565b600254600090801561083b576108366110f861074f565b84908361194e565b600061110b846108b1565b9050336001600160a01b0383161461117b576001600160a01b03821660009081526004602090815260408083203384529091529020546000198114611179576111548282612b14565b6001600160a01b03841660009081526004602090815260408083203384529091529020555b505b6111858482611fa1565b61118f8282611ff1565b60408051858152602081018390526001600160a01b03808516929086169133917ffbde797d201c681b91056529119e0b02407c7bb96a4a2c75c01fc9667232c8db910160405180910390a461083d6001600160a01b037f0000000000000000000000000000000000000000000000000000000000000000168486612053565b6000336001600160a01b0383161461127e576001600160a01b0382166000908152600460209081526040808320338452909152902054600019811461127c576112578582612b14565b6001600160a01b03841660009081526004602090815260408083203384529091529020555b505b61128784610b10565b9050806000036112c75760405162461bcd60e51b815260206004820152600b60248201526a5a45524f5f41535345545360a81b6044820152606401610cb1565b6112d18185611fa1565b6112db8285611ff1565b60408051828152602081018690526001600160a01b03808516929086169133917ffbde797d201c681b91056529119e0b02407c7bb96a4a2c75c01fc9667232c8db910160405180910390a461083d6001600160a01b037f0000000000000000000000000000000000000000000000000000000000000000168483612053565b600254600090801561083b576108368161137261074f565b859190611930565b6000807f00000000000000000000000000000000000000000000000000000000000000006001600160a01b0316633b1d21a26040518163ffffffff1660e01b8152600401602060405180830381865afa1580156113db573d6000803e3d6000fd5b505050506040513d601f19601f820116820180604052508101906113ff9190612d98565b6001600160a01b0384166000908152600360205260408120549192509061142590610817565b90508082106114345780611436565b815b949350505050565b33600081815260096020526040908190205490516331a9108f60e11b8152600481018290529091906001600160a01b037f00000000000000000000000000000000000000000000000000000000000000001690636352211e90602401602060405180830381865afa1580156114b7573d6000803e3d6000fd5b505050506040513d601f19601f820116820180604052508101906114db9190612db1565b6001600160a01b03161461150257604051636fb33f1d60e01b815260040160405180910390fd5b50600680546001600160a01b0319166001600160a01b0392909216919091179055565b428410156115755760405162461bcd60e51b815260206004820152601760248201527f5045524d49545f444541444c494e455f455850495245440000000000000000006044820152606401610cb1565b600060016115816109b1565b6001600160a01b038a811660008181526005602090815260409182902080546001810190915582517f6e71edae12b1b97f4d1f60370fef10105fa2faae0126114a169c64845d6126c98184015280840194909452938d166060840152608083018c905260a083019390935260c08083018b90528151808403909101815260e08301909152805192019190912061190160f01b6101008301526101028201929092526101228101919091526101420160408051601f198184030181528282528051602091820120600084529083018083525260ff871690820152606081018590526080810184905260a0016020604051602081039080840390855afa15801561168d573d6000803e3d6000fd5b5050604051601f1901519150506001600160a01b038116158015906116c35750876001600160a01b0316816001600160a01b0316145b6117005760405162461bcd60e51b815260206004820152600e60248201526d24a72b20a624a22fa9a4a3a722a960911b6044820152606401610cb1565b6001600160a01b0390811660009081526004602090815260408083208a8516808552908352928190208990555188815291928a16917f8c5be1e5ebec7d5bd14f71427d1e84f3dd0314c0f7b2291e5b200ac8c7c3b925910160405180910390a350505050505050565b6000807f00000000000000000000000000000000000000000000000000000000000000006001600160a01b0316633b1d21a26040518163ffffffff1660e01b8152600401602060405180830381865afa1580156117ca573d6000803e3d6000fd5b505050506040513d601f19601f820116820180604052508101906117ee9190612d98565b905060006117fb8261135a565b6001600160a01b0385166000908152600360205260409020549091508082106118245780611826565b815b95945050505050565b6008805461079690612ac4565b336001600160a01b037f000000000000000000000000000000000000000000000000000000000000000016146118855760405163eda3689960e01b815260040160405180910390fd5b600780546001600160a01b0319166001600160a01b0392909216919091179055565b60006108ab8261135a565b600061083d6118c0846120d4565b6040516370a0823160e01b81526001600160a01b0385811660048301528616906370a0823190602401602060405180830381865afa158015611906573d6000803e3d6000fd5b505050506040513d601f19601f8201168201806040525081019061192a9190612d98565b906125c9565b600082600019048411830215820261194757600080fd5b5091020490565b600082600019048411830215820261196557600080fd5b50910281810615159190040190565b60007f8b73c3c69bb8fe3d512ecc4cf759cc79239f7b179b0ffacaa9a75d522b39400f60006040516119a69190612dce565b6040805191829003822060208301939093528101919091527fc89efdaa54c0f20c7adf612882df0950f5a951637e0307cdcb4c672f298b8bc660608201524660808201523060a082015260c00160405160208183030381529060405280519060200120905090565b6000620151804210611a205750600190565b50600090565b33600081815260096020526040908190205490516331a9108f60e11b8152600481018290529091906001600160a01b037f00000000000000000000000000000000000000000000000000000000000000001690636352211e90602401602060405180830381865afa158015611a9f573d6000803e3d6000fd5b505050506040513d601f19601f82011682018060405250810190611ac39190612db1565b6001600160a01b031614611aea57604051636fb33f1d60e01b815260040160405180910390fd5b604080516001808252818301909252600091602080830190803683370190505090507f000000000000000000000000000000000000000000000000000000000000000081600081518110611b4057611b40612b5f565b6001600160a01b03928316602091820292909201015260405162e1ed9760e51b81527f000000000000000000000000000000000000000000000000000000000000000090911690631c3db2e090611b9d9030908590600401612e44565b600060405180830381600087803b158015611bb757600080fd5b505af1158015611bcb573d6000803e3d6000fd5b50506040516370a0823160e01b8152306004820152600092507f00000000000000000000000000000000000000000000000000000000000000006001600160a01b031691506370a0823190602401602060405180830381865afa158015611c36573d6000803e3d6000fd5b505050506040513d601f19601f82011682018060405250810190611c5a9190612d98565b90506000196000611c6b83836125de565b905081811015611c8e57604051635e27cd5b60e01b815260040160405180910390fd5b6007546001600160a01b031615611ccb57600754611ccb9073326c977e6efc84e512bb9c30f76e30c160ed06fb906001600160a01b031683612053565b60408051338152602081018590529081018290527fd23e4ed488f732249fcd11f770f20b7505b4f7602a6663a4bc21e688f1f2215d9060600160405180910390a16040516370a0823160e01b8152306004820152611d9f907f00000000000000000000000000000000000000000000000000000000000000006001600160a01b0316906370a0823190602401602060405180830381865afa158015611d74573d6000803e3d6000fd5b505050506040513d601f19601f82011682018060405250810190611d989190612d98565b6000611e95565b5050505050565b60006040516323b872dd60e01b81526001600160a01b03851660048201526001600160a01b03841660248201528260448201526020600060648360008a5af13d15601f3d1160016000511416171691505080611d9f5760405162461bcd60e51b81526020600482015260146024820152731514905394d1915497d19493d357d1905253115160621b6044820152606401610cb1565b8060026000828254611e4d9190612e68565b90915550506001600160a01b038216600081815260036020908152604080832080548601905551848152600080516020612eeb83398151915291015b60405180910390a35050565b611ee96001600160a01b037f0000000000000000000000000000000000000000000000000000000000000000167f00000000000000000000000000000000000000000000000000000000000000008461271a565b60405163140e25ad60e31b8152600481018390526000907f00000000000000000000000000000000000000000000000000000000000000006001600160a01b03169063a0712d68906024015b6020604051808303816000875af1158015611f54573d6000803e3d6000fd5b505050506040513d601f19601f82011682018060405250810190611f789190612d98565b90508015611f9c57604051631e9d177160e11b815260048101829052602401610cb1565b505050565b60405163852a12e360e01b8152600481018390526000907f00000000000000000000000000000000000000000000000000000000000000006001600160a01b03169063852a12e390602401611f35565b6001600160a01b03821660009081526003602052604081208054839290612019908490612b14565b90915550506002805482900390556040518181526000906001600160a01b03841690600080516020612eeb83398151915290602001611e89565b600060405163a9059cbb60e01b81526001600160a01b0384166004820152826024820152602060006044836000895af13d15601f3d1160016000511416171691505080610c3d5760405162461bcd60e51b815260206004820152600f60248201526e1514905394d1915497d19052531151608a1b6044820152606401610cb1565b600080826001600160a01b0316636c540baf6040518163ffffffff1660e01b8152600401602060405180830381865afa158015612115573d6000803e3d6000fd5b505050506040513d601f19601f820116820180604052508101906121399190612d98565b90504381036121a457826001600160a01b031663182df0f56040518163ffffffff1660e01b8152600401602060405180830381865afa158015612180573d6000803e3d6000fd5b505050506040513d601f19601f8201168201806040525081019061083d9190612d98565b6000836001600160a01b0316636f307dc36040518163ffffffff1660e01b8152600401602060405180830381865afa1580156121e4573d6000803e3d6000fd5b505050506040513d601f19601f820116820180604052508101906122089190612db1565b6040516370a0823160e01b81526001600160a01b03868116600483015291909116906370a0823190602401602060405180830381865afa158015612250573d6000803e3d6000fd5b505050506040513d601f19601f820116820180604052508101906122749190612d98565b90506000846001600160a01b03166347bd37186040518163ffffffff1660e01b8152600401602060405180830381865afa1580156122b6573d6000803e3d6000fd5b505050506040513d601f19601f820116820180604052508101906122da9190612d98565b90506000856001600160a01b0316638f840ddd6040518163ffffffff1660e01b8152600401602060405180830381865afa15801561231c573d6000803e3d6000fd5b505050506040513d601f19601f820116820180604052508101906123409190612d98565b90506000866001600160a01b031663f3fdb15a6040518163ffffffff1660e01b8152600401602060405180830381865afa158015612382573d6000803e3d6000fd5b505050506040513d601f19601f820116820180604052508101906123a69190612db1565b6040516315f2405360e01b81526004810186905260248101859052604481018490526001600160a01b0391909116906315f2405390606401602060405180830381865afa1580156123fb573d6000803e3d6000fd5b505050506040513d601f19601f8201168201806040525081019061241f9190612d98565b905065048c2739500081111561244857604051630473e09960e01b815260040160405180910390fd5b600061245486856125c9565b61245e4384612e7b565b6124689190612b14565b90506000836124af838b6001600160a01b031663173b99046040518163ffffffff1660e01b8152600401602060405180830381865afa158015611906573d6000803e3d6000fd5b6124b99190612e68565b905060006124c78684612e68565b905060008a6001600160a01b03166318160ddd6040518163ffffffff1660e01b8152600401602060405180830381865afa158015612509573d6000803e3d6000fd5b505050506040513d601f19601f8201168201806040525081019061252d9190612d98565b905080156125585761253f838261279a565b612549838a612e68565b6125539190612b14565b6125ba565b8a6001600160a01b031663675d972c6040518163ffffffff1660e01b8152600401602060405180830381865afa158015612596573d6000803e3d6000fd5b505050506040513d601f19601f820116820180604052508101906125ba9190612d98565b9b9a5050505050505050505050565b600061083d8383670de0b6b3a7640000611930565b6040805160a0810182527f0000000000000000000000000000000000000000000000000000000000000000606090811b6001600160601b03191660c083015273326c977e6efc84e512bb9c30f76e30c160ed06fb60601b60d4830152825160c881840301815260e88301845282523060208301524282840152810184905260808101839052905163c04b8d5960e01b81526000919082907f00000000000000000000000000000000000000000000000000000000000000006001600160a01b03169063c04b8d59906126b4908590600401612e92565b6020604051808303816000875af11580156126d3573d6000803e3d6000fd5b505050506040513d601f19601f820116820180604052508101906126f79190612d98565b90508381101561143657604051635e27cd5b60e01b815260040160405180910390fd5b600060405163095ea7b360e01b81526001600160a01b0384166004820152826024820152602060006044836000895af13d15601f3d1160016000511416171691505080610c3d5760405162461bcd60e51b815260206004820152600e60248201526d1054141493d59157d1905253115160921b6044820152606401610cb1565b600061083d83670de0b6b3a764000084611930565b6000815180845260005b818110156127d5576020818501810151868301820152016127b9565b506000602082860101526020601f19601f83011685010191505092915050565b60208152600061083d60208301846127af565b60006020828403121561281a57600080fd5b5035919050565b6001600160a01b038116811461283657600080fd5b50565b6000806040838503121561284c57600080fd5b823561285781612821565b946020939093013593505050565b60008060006060848603121561287a57600080fd5b833561288581612821565b9250602084013561289581612821565b929592945050506040919091013590565b6000602082840312156128b857600080fd5b813561083d81612821565b600080602083850312156128d657600080fd5b823567ffffffffffffffff808211156128ee57600080fd5b818501915085601f83011261290257600080fd5b81358181111561291157600080fd5b86602082850101111561292357600080fd5b60209290920196919550909350505050565b6000806040838503121561294857600080fd5b823561295381612821565b9150602083013561296381612821565b809150509250929050565b821515815260406020820152600061143660408301846127af565b6000806040838503121561299c57600080fd5b82359150602083013561296381612821565b803562ffffff811681146129c157600080fd5b919050565b6000806000606084860312156129db57600080fd5b6129e4846129ae565b925060208401356129f481612821565b9150612a02604085016129ae565b90509250925092565b600080600060608486031215612a2057600080fd5b833592506020840135612a3281612821565b91506040840135612a4281612821565b809150509250925092565b600080600080600080600060e0888a031215612a6857600080fd5b8735612a7381612821565b96506020880135612a8381612821565b95506040880135945060608801359350608088013560ff81168114612aa757600080fd5b9699959850939692959460a0840135945060c09093013592915050565b600181811c90821680612ad857607f821691505b602082108103612af857634e487b7160e01b600052602260045260246000fd5b50919050565b634e487b7160e01b600052601160045260246000fd5b818103818111156108ab576108ab612afe565b600060208284031215612b3957600080fd5b8151801515811461083d57600080fd5b634e487b7160e01b600052604160045260246000fd5b634e487b7160e01b600052603260045260246000fd5b600081518084526020808501945080840160005b83811015612bae5781516001600160a01b031687529582019590820190600101612b89565b509495945050505050565b60208152600061083d6020830184612b75565b60006020808385031215612bdf57600080fd5b825167ffffffffffffffff80821115612bf757600080fd5b818501915085601f830112612c0b57600080fd5b815181811115612c1d57612c1d612b49565b8060051b604051601f19603f83011681018181108582111715612c4257612c42612b49565b604052918252848201925083810185019188831115612c6057600080fd5b938501935b82851015612c7e57845184529385019392850192612c65565b98975050505050505050565b601f821115611f9c57600081815260208120601f850160051c81016020861015612cb15750805b601f850160051c820191505b81811015612cd057828155600101612cbd565b505050505050565b815167ffffffffffffffff811115612cf257612cf2612b49565b612d0681612d008454612ac4565b84612c8a565b602080601f831160018114612d3b5760008415612d235750858301515b600019600386901b1c1916600185901b178555612cd0565b600085815260208120601f198616915b82811015612d6a57888601518255948401946001909101908401612d4b565b5085821015612d885787850151600019600388901b60f8161c191681555b5050505050600190811b01905550565b600060208284031215612daa57600080fd5b5051919050565b600060208284031215612dc357600080fd5b815161083d81612821565b6000808354612ddc81612ac4565b60018281168015612df45760018114612e0957612e38565b60ff1984168752821515830287019450612e38565b8760005260208060002060005b85811015612e2f5781548a820152908401908201612e16565b50505082870194505b50929695505050505050565b6001600160a01b038316815260406020820181905260009061143690830184612b75565b808201808211156108ab576108ab612afe565b80820281158282048414176108ab576108ab612afe565b602081526000825160a06020840152612eae60c08401826127af565b905060018060a01b0360208501511660408401526040840151606084015260608401516080840152608084015160a0840152809150509291505056feddf252ad1be2c89b69c2b068fc378daa952ba7f163c4a11628f55a4df523b3efa264697066735822122036aadd6650b182e57d233e10e97b49c539fb7daf466ba0c3bbf1fca99b63e83f64736f6c63430008150033",
    "linkReferences": {}
  },
  "methodIdentifiers": {
    "ComputeCaller()": "baac8746",
    "DOMAIN_SEPARATOR()": "3644e515",
    "LINK()": "1b6b6d23",
    "addToken(address,address)": "5476bd72",
    "allowance(address,address)": "dd62ed3e",
    "approve(address,uint256)": "095ea7b3",
    "asset()": "38d52e0f",
    "authorizedExecutor()": "13dd495b",
    "balanceOf(address)": "70a08231",
    "cToken()": "69e527da",
    "checkUpkeep(bytes)": "6e04ff0d",
    "comptroller()": "5fe3b567",
    "convertToAssets(uint256)": "07a2d13a",
    "convertToShares(uint256)": "c6e6f592",
    "decimals()": "313ce567",
    "deposit(uint256,address)": "6e553f65",
    "getUserVaultDeposit(address,uint256)": "52d747ad",
    "manager()": "481c6a75",
    "maxDeposit(address)": "402d267d",
    "maxMint(address)": "c63d75b6",
    "maxRedeem(address)": "d905777e",
    "maxWithdraw(address)": "ce96cb77",
    "mint(uint256,address)": "94bf804d",
    "name()": "06fdde03",
    "nftIdOwner(address)": "fd3c4840",
    "nftToken()": "d06fcba8",
    "nonces(address)": "7ecebe00",
    "performUpkeep(bytes)": "4585e33b",
    "permit(address,address,uint256,uint256,uint8,bytes32,bytes32)": "d505accf",
    "previewDeposit(uint256)": "ef8b30f7",
    "previewMint(uint256)": "b3d7f6b9",
    "previewRedeem(uint256)": "4cdad506",
    "previewWithdraw(uint256)": "0a28a477",
    "redeem(uint256,address,address)": "ba087652",
    "reward()": "228cb733",
    "setAuthorizedExecutor(address)": "d188c049",
    "setComputeCaller(address)": "e8dea924",
    "setRoute(uint24,address,uint24)": "83df238a",
    "swapPath()": "df5af13f",
    "swapRouter()": "c31c9c07",
    "symbol()": "95d89b41",
    "totalAssets()": "01e1d114",
    "totalSupply()": "18160ddd",
    "transfer(address,uint256)": "a9059cbb",
    "transferFrom(address,address,uint256)": "23b872dd",
    "userVaultDeposit(address,uint256)": "e00886cb",
    "withdraw(uint256,address,address)": "b460af94"
  },
  "id": 52
}