{
  "abi": [
    {
      "type": "constructor",
      "inputs": [
        {
          "name": "weth_",
          "type": "address",
          "internalType": "address"
        },
        {
          "name": "stEth_",
          "type": "address",
          "internalType": "address"
        },
        {
          "name": "curvePool_",
          "type": "address",
          "internalType": "address"
        },
        {
          "name": "manager_",
          "type": "address",
          "internalType": "address"
        },
        {
          "name": "nftToken_",
          "type": "address",
          "internalType": "contract IERC721"
        }
      ],
      "stateMutability": "nonpayable"
    },
    {
      "type": "receive",
      "stateMutability": "payable"
    },
    {
      "type": "function",
      "name": "ComputeCaller",
      "inputs": [],
      "outputs": [
        {
          "name": "",
          "type": "address",
          "internalType": "address"
        }
      ],
      "stateMutability": "view"
    },
    {
      "type": "function",
      "name": "DOMAIN_SEPARATOR",
      "inputs": [],
      "outputs": [
        {
          "name": "",
          "type": "bytes32",
          "internalType": "bytes32"
        }
      ],
      "stateMutability": "view"
    },
    {
      "type": "function",
      "name": "LINK",
      "inputs": [],
      "outputs": [
        {
          "name": "",
          "type": "address",
          "internalType": "contract IERC20"
        }
      ],
      "stateMutability": "view"
    },
    {
      "type": "function",
      "name": "allowance",
      "inputs": [
        {
          "name": "",
          "type": "address",
          "internalType": "address"
        },
        {
          "name": "",
          "type": "address",
          "internalType": "address"
        }
      ],
      "outputs": [
        {
          "name": "",
          "type": "uint256",
          "internalType": "uint256"
        }
      ],
      "stateMutability": "view"
    },
    {
      "type": "function",
      "name": "approve",
      "inputs": [
        {
          "name": "spender",
          "type": "address",
          "internalType": "address"
        },
        {
          "name": "amount",
          "type": "uint256",
          "internalType": "uint256"
        }
      ],
      "outputs": [
        {
          "name": "",
          "type": "bool",
          "internalType": "bool"
        }
      ],
      "stateMutability": "nonpayable"
    },
    {
      "type": "function",
      "name": "asset",
      "inputs": [],
      "outputs": [
        {
          "name": "",
          "type": "address",
          "internalType": "contract ERC20"
        }
      ],
      "stateMutability": "view"
    },
    {
      "type": "function",
      "name": "authorizedExecutor",
      "inputs": [],
      "outputs": [
        {
          "name": "",
          "type": "address",
          "internalType": "address"
        }
      ],
      "stateMutability": "view"
    },
    {
      "type": "function",
      "name": "balanceOf",
      "inputs": [
        {
          "name": "",
          "type": "address",
          "internalType": "address"
        }
      ],
      "outputs": [
        {
          "name": "",
          "type": "uint256",
          "internalType": "uint256"
        }
      ],
      "stateMutability": "view"
    },
    {
      "type": "function",
      "name": "checkUpkeep",
      "inputs": [
        {
          "name": "",
          "type": "bytes",
          "internalType": "bytes"
        }
      ],
      "outputs": [
        {
          "name": "upkeepNeeded",
          "type": "bool",
          "internalType": "bool"
        },
        {
          "name": "performData",
          "type": "bytes",
          "internalType": "bytes"
        }
      ],
      "stateMutability": "view"
    },
    {
      "type": "function",
      "name": "convertToAssets",
      "inputs": [
        {
          "name": "assets_",
          "type": "uint256",
          "internalType": "uint256"
        }
      ],
      "outputs": [
        {
          "name": "",
          "type": "uint256",
          "internalType": "uint256"
        }
      ],
      "stateMutability": "view"
    },
    {
      "type": "function",
      "name": "convertToShares",
      "inputs": [
        {
          "name": "assets_",
          "type": "uint256",
          "internalType": "uint256"
        }
      ],
      "outputs": [
        {
          "name": "",
          "type": "uint256",
          "internalType": "uint256"
        }
      ],
      "stateMutability": "view"
    },
    {
      "type": "function",
      "name": "curvePool",
      "inputs": [],
      "outputs": [
        {
          "name": "",
          "type": "address",
          "internalType": "contract ICurve"
        }
      ],
      "stateMutability": "view"
    },
    {
      "type": "function",
      "name": "decimals",
      "inputs": [],
      "outputs": [
        {
          "name": "",
          "type": "uint8",
          "internalType": "uint8"
        }
      ],
      "stateMutability": "view"
    },
    {
      "type": "function",
      "name": "deposit",
      "inputs": [
        {
          "name": "assets_",
          "type": "uint256",
          "internalType": "uint256"
        },
        {
          "name": "receiver_",
          "type": "address",
          "internalType": "address"
        }
      ],
      "outputs": [
        {
          "name": "shares",
          "type": "uint256",
          "internalType": "uint256"
        }
      ],
      "stateMutability": "nonpayable"
    },
    {
      "type": "function",
      "name": "depositETH",
      "inputs": [
        {
          "name": "receiver_",
          "type": "address",
          "internalType": "address"
        }
      ],
      "outputs": [
        {
          "name": "shares",
          "type": "uint256",
          "internalType": "uint256"
        }
      ],
      "stateMutability": "payable"
    },
    {
      "type": "function",
      "name": "ethIndex",
      "inputs": [],
      "outputs": [
        {
          "name": "",
          "type": "int128",
          "internalType": "int128"
        }
      ],
      "stateMutability": "view"
    },
    {
      "type": "function",
      "name": "maxDeposit",
      "inputs": [
        {
          "name": "",
          "type": "address",
          "internalType": "address"
        }
      ],
      "outputs": [
        {
          "name": "",
          "type": "uint256",
          "internalType": "uint256"
        }
      ],
      "stateMutability": "view"
    },
    {
      "type": "function",
      "name": "maxMint",
      "inputs": [
        {
          "name": "",
          "type": "address",
          "internalType": "address"
        }
      ],
      "outputs": [
        {
          "name": "",
          "type": "uint256",
          "internalType": "uint256"
        }
      ],
      "stateMutability": "view"
    },
    {
      "type": "function",
      "name": "maxRedeem",
      "inputs": [
        {
          "name": "owner",
          "type": "address",
          "internalType": "address"
        }
      ],
      "outputs": [
        {
          "name": "",
          "type": "uint256",
          "internalType": "uint256"
        }
      ],
      "stateMutability": "view"
    },
    {
      "type": "function",
      "name": "maxWithdraw",
      "inputs": [
        {
          "name": "owner",
          "type": "address",
          "internalType": "address"
        }
      ],
      "outputs": [
        {
          "name": "",
          "type": "uint256",
          "internalType": "uint256"
        }
      ],
      "stateMutability": "view"
    },
    {
      "type": "function",
      "name": "mint",
      "inputs": [
        {
          "name": "shares_",
          "type": "uint256",
          "internalType": "uint256"
        },
        {
          "name": "receiver_",
          "type": "address",
          "internalType": "address"
        }
      ],
      "outputs": [
        {
          "name": "assets",
          "type": "uint256",
          "internalType": "uint256"
        }
      ],
      "stateMutability": "nonpayable"
    },
    {
      "type": "function",
      "name": "name",
      "inputs": [],
      "outputs": [
        {
          "name": "",
          "type": "string",
          "internalType": "string"
        }
      ],
      "stateMutability": "view"
    },
    {
      "type": "function",
      "name": "nftIdOwner",
      "inputs": [
        {
          "name": "",
          "type": "address",
          "internalType": "address"
        }
      ],
      "outputs": [
        {
          "name": "",
          "type": "uint256",
          "internalType": "uint256"
        }
      ],
      "stateMutability": "view"
    },
    {
      "type": "function",
      "name": "nftToken",
      "inputs": [],
      "outputs": [
        {
          "name": "",
          "type": "address",
          "internalType": "contract IERC721"
        }
      ],
      "stateMutability": "view"
    },
    {
      "type": "function",
      "name": "nonces",
      "inputs": [
        {
          "name": "",
          "type": "address",
          "internalType": "address"
        }
      ],
      "outputs": [
        {
          "name": "",
          "type": "uint256",
          "internalType": "uint256"
        }
      ],
      "stateMutability": "view"
    },
    {
      "type": "function",
      "name": "performUpkeep",
      "inputs": [
        {
          "name": "",
          "type": "bytes",
          "internalType": "bytes"
        }
      ],
      "outputs": [],
      "stateMutability": "nonpayable"
    },
    {
      "type": "function",
      "name": "permit",
      "inputs": [
        {
          "name": "owner",
          "type": "address",
          "internalType": "address"
        },
        {
          "name": "spender",
          "type": "address",
          "internalType": "address"
        },
        {
          "name": "value",
          "type": "uint256",
          "internalType": "uint256"
        },
        {
          "name": "deadline",
          "type": "uint256",
          "internalType": "uint256"
        },
        {
          "name": "v",
          "type": "uint8",
          "internalType": "uint8"
        },
        {
          "name": "r",
          "type": "bytes32",
          "internalType": "bytes32"
        },
        {
          "name": "s",
          "type": "bytes32",
          "internalType": "bytes32"
        }
      ],
      "outputs": [],
      "stateMutability": "nonpayable"
    },
    {
      "type": "function",
      "name": "previewDeposit",
      "inputs": [
        {
          "name": "assets",
          "type": "uint256",
          "internalType": "uint256"
        }
      ],
      "outputs": [
        {
          "name": "",
          "type": "uint256",
          "internalType": "uint256"
        }
      ],
      "stateMutability": "view"
    },
    {
      "type": "function",
      "name": "previewMint",
      "inputs": [
        {
          "name": "assets_",
          "type": "uint256",
          "internalType": "uint256"
        }
      ],
      "outputs": [
        {
          "name": "",
          "type": "uint256",
          "internalType": "uint256"
        }
      ],
      "stateMutability": "view"
    },
    {
      "type": "function",
      "name": "previewRedeem",
      "inputs": [
        {
          "name": "shares",
          "type": "uint256",
          "internalType": "uint256"
        }
      ],
      "outputs": [
        {
          "name": "",
          "type": "uint256",
          "internalType": "uint256"
        }
      ],
      "stateMutability": "view"
    },
    {
      "type": "function",
      "name": "previewWithdraw",
      "inputs": [
        {
          "name": "assets_",
          "type": "uint256",
          "internalType": "uint256"
        }
      ],
      "outputs": [
        {
          "name": "",
          "type": "uint256",
          "internalType": "uint256"
        }
      ],
      "stateMutability": "view"
    },
    {
      "type": "function",
      "name": "redeem",
      "inputs": [
        {
          "name": "shares_",
          "type": "uint256",
          "internalType": "uint256"
        },
        {
          "name": "receiver_",
          "type": "address",
          "internalType": "address"
        },
        {
          "name": "owner_",
          "type": "address",
          "internalType": "address"
        }
      ],
      "outputs": [
        {
          "name": "assets",
          "type": "uint256",
          "internalType": "uint256"
        }
      ],
      "stateMutability": "nonpayable"
    },
    {
      "type": "function",
      "name": "setComputeCaller",
      "inputs": [
        {
          "name": "ComputeCaller_",
          "type": "address",
          "internalType": "address"
        }
      ],
      "outputs": [],
      "stateMutability": "nonpayable"
    },
    {
      "type": "function",
      "name": "setRoute",
      "inputs": [
        {
          "name": "poolFee1_",
          "type": "uint24",
          "internalType": "uint24"
        },
        {
          "name": "tokenMid_",
          "type": "address",
          "internalType": "address"
        },
        {
          "name": "poolFee2_",
          "type": "uint24",
          "internalType": "uint24"
        }
      ],
      "outputs": [],
      "stateMutability": "nonpayable"
    },
    {
      "type": "function",
      "name": "setSlippage",
      "inputs": [
        {
          "name": "amount_",
          "type": "uint256",
          "internalType": "uint256"
        }
      ],
      "outputs": [],
      "stateMutability": "nonpayable"
    },
    {
      "type": "function",
      "name": "slippage",
      "inputs": [],
      "outputs": [
        {
          "name": "",
          "type": "uint256",
          "internalType": "uint256"
        }
      ],
      "stateMutability": "view"
    },
    {
      "type": "function",
      "name": "slippageFloat",
      "inputs": [],
      "outputs": [
        {
          "name": "",
          "type": "uint256",
          "internalType": "uint256"
        }
      ],
      "stateMutability": "view"
    },
    {
      "type": "function",
      "name": "stEth",
      "inputs": [],
      "outputs": [
        {
          "name": "",
          "type": "address",
          "internalType": "contract IStETH"
        }
      ],
      "stateMutability": "view"
    },
    {
      "type": "function",
      "name": "stEthIndex",
      "inputs": [],
      "outputs": [
        {
          "name": "",
          "type": "int128",
          "internalType": "int128"
        }
      ],
      "stateMutability": "view"
    },
    {
      "type": "function",
      "name": "swapPath",
      "inputs": [],
      "outputs": [
        {
          "name": "",
          "type": "bytes",
          "internalType": "bytes"
        }
      ],
      "stateMutability": "view"
    },
    {
      "type": "function",
      "name": "swapRouter",
      "inputs": [],
      "outputs": [
        {
          "name": "",
          "type": "address",
          "internalType": "contract ISwapRouter"
        }
      ],
      "stateMutability": "view"
    },
    {
      "type": "function",
      "name": "symbol",
      "inputs": [],
      "outputs": [
        {
          "name": "",
          "type": "string",
          "internalType": "string"
        }
      ],
      "stateMutability": "view"
    },
    {
      "type": "function",
      "name": "totalAssets",
      "inputs": [],
      "outputs": [
        {
          "name": "",
          "type": "uint256",
          "internalType": "uint256"
        }
      ],
      "stateMutability": "view"
    },
    {
      "type": "function",
      "name": "totalSupply",
      "inputs": [],
      "outputs": [
        {
          "name": "",
          "type": "uint256",
          "internalType": "uint256"
        }
      ],
      "stateMutability": "view"
    },
    {
      "type": "function",
      "name": "transfer",
      "inputs": [
        {
          "name": "to",
          "type": "address",
          "internalType": "address"
        },
        {
          "name": "amount",
          "type": "uint256",
          "internalType": "uint256"
        }
      ],
      "outputs": [
        {
          "name": "",
          "type": "bool",
          "internalType": "bool"
        }
      ],
      "stateMutability": "nonpayable"
    },
    {
      "type": "function",
      "name": "transferFrom",
      "inputs": [
        {
          "name": "from",
          "type": "address",
          "internalType": "address"
        },
        {
          "name": "to",
          "type": "address",
          "internalType": "address"
        },
        {
          "name": "amount",
          "type": "uint256",
          "internalType": "uint256"
        }
      ],
      "outputs": [
        {
          "name": "",
          "type": "bool",
          "internalType": "bool"
        }
      ],
      "stateMutability": "nonpayable"
    },
    {
      "type": "function",
      "name": "userVaultDeposit",
      "inputs": [
        {
          "name": "",
          "type": "address",
          "internalType": "address"
        },
        {
          "name": "",
          "type": "uint256",
          "internalType": "uint256"
        }
      ],
      "outputs": [
        {
          "name": "",
          "type": "uint256",
          "internalType": "uint256"
        }
      ],
      "stateMutability": "view"
    },
    {
      "type": "function",
      "name": "weth",
      "inputs": [],
      "outputs": [
        {
          "name": "",
          "type": "address",
          "internalType": "contract IWETH"
        }
      ],
      "stateMutability": "view"
    },
    {
      "type": "function",
      "name": "withdraw",
      "inputs": [
        {
          "name": "assets_",
          "type": "uint256",
          "internalType": "uint256"
        },
        {
          "name": "receiver_",
          "type": "address",
          "internalType": "address"
        },
        {
          "name": "owner_",
          "type": "address",
          "internalType": "address"
        }
      ],
      "outputs": [
        {
          "name": "shares",
          "type": "uint256",
          "internalType": "uint256"
        }
      ],
      "stateMutability": "nonpayable"
    },
    {
      "type": "event",
      "name": "Approval",
      "inputs": [
        {
          "name": "owner",
          "type": "address",
          "indexed": true,
          "internalType": "address"
        },
        {
          "name": "spender",
          "type": "address",
          "indexed": true,
          "internalType": "address"
        },
        {
          "name": "amount",
          "type": "uint256",
          "indexed": false,
          "internalType": "uint256"
        }
      ],
      "anonymous": false
    },
    {
      "type": "event",
      "name": "Deposit",
      "inputs": [
        {
          "name": "caller",
          "type": "address",
          "indexed": true,
          "internalType": "address"
        },
        {
          "name": "owner",
          "type": "address",
          "indexed": true,
          "internalType": "address"
        },
        {
          "name": "assets",
          "type": "uint256",
          "indexed": false,
          "internalType": "uint256"
        },
        {
          "name": "shares",
          "type": "uint256",
          "indexed": false,
          "internalType": "uint256"
        }
      ],
      "anonymous": false
    },
    {
      "type": "event",
      "name": "HarveststETH",
      "inputs": [
        {
          "name": "_owner",
          "type": "address",
          "indexed": false,
          "internalType": "address"
        },
        {
          "name": "_reward",
          "type": "uint256",
          "indexed": false,
          "internalType": "uint256"
        },
        {
          "name": "_linkToken",
          "type": "uint256",
          "indexed": false,
          "internalType": "uint256"
        }
      ],
      "anonymous": false
    },
    {
      "type": "event",
      "name": "Transfer",
      "inputs": [
        {
          "name": "from",
          "type": "address",
          "indexed": true,
          "internalType": "address"
        },
        {
          "name": "to",
          "type": "address",
          "indexed": true,
          "internalType": "address"
        },
        {
          "name": "amount",
          "type": "uint256",
          "indexed": false,
          "internalType": "uint256"
        }
      ],
      "anonymous": false
    },
    {
      "type": "event",
      "name": "Withdraw",
      "inputs": [
        {
          "name": "caller",
          "type": "address",
          "indexed": true,
          "internalType": "address"
        },
        {
          "name": "receiver",
          "type": "address",
          "indexed": true,
          "internalType": "address"
        },
        {
          "name": "owner",
          "type": "address",
          "indexed": true,
          "internalType": "address"
        },
        {
          "name": "assets",
          "type": "uint256",
          "indexed": false,
          "internalType": "uint256"
        },
        {
          "name": "shares",
          "type": "uint256",
          "indexed": false,
          "internalType": "uint256"
        }
      ],
      "anonymous": false
    },
    {
      "type": "error",
      "name": "INVALID_ACCESS",
      "inputs": []
    },
    {
      "type": "error",
      "name": "INVALID_ACCESS_ERROR",
      "inputs": []
    },
    {
      "type": "error",
      "name": "INVALID_FEE_ERROR",
      "inputs": []
    },
    {
      "type": "error",
      "name": "INVALID_SLIPPAGE",
      "inputs": []
    },
    {
      "type": "error",
      "name": "MIN_AMOUNT_ERROR",
      "inputs": []
    },
    {
      "type": "error",
      "name": "ZERO_ASSETS",
      "inputs": []
    },
    {
      "type": "error",
      "name": "ZERO_DEPOSIT",
      "inputs": []
    },
    {
      "type": "error",
      "name": "ZERO_SHARES",
      "inputs": []
    }
  ],
  "bytecode": {
    "object": "0x6101a06040526127106101205273e592427a0aece92de3edee1f18e0157c05861564610140526000610160526001610180523480156200003e57600080fd5b5060405162002d1338038062002d138339810160408190526200006191620002f0565b846040518060400160405280601581526020017f455243343632362d577261707065642073744554480000000000000000000000815250604051806040016040528060078152602001660ee98e6e88aa8960cb1b8152508181846001600160a01b031663313ce5676040518163ffffffff1660e01b8152600401602060405180830381865afa158015620000f9573d6000803e3d6000fd5b505050506040513d601f19601f820116820180604052508101906200011f919062000370565b60006200012d848262000441565b5060016200013c838262000441565b5060ff81166080524660a052620001526200023b565b60c052505050506001600160a01b0391821660e05250600880546001600160a01b0319908116878416908117909255600980548216898516179055600a8054909116928616928317905560405163095ea7b360e01b8152600481019290925260001960248301529063095ea7b3906044016020604051808303816000875af1158015620001e3573d6000803e3d6000fd5b505050506040513d601f19601f820116820180604052508101906200020991906200050d565b50600680546001600160a01b0319166001600160a01b039384161790556126ac600b55166101005250620005af915050565b60007f8b73c3c69bb8fe3d512ecc4cf759cc79239f7b179b0ffacaa9a75d522b39400f60006040516200026f919062000531565b6040805191829003822060208301939093528101919091527fc89efdaa54c0f20c7adf612882df0950f5a951637e0307cdcb4c672f298b8bc660608201524660808201523060a082015260c00160405160208183030381529060405280519060200120905090565b6001600160a01b0381168114620002ed57600080fd5b50565b600080600080600060a086880312156200030957600080fd5b85516200031681620002d7565b60208701519095506200032981620002d7565b60408701519094506200033c81620002d7565b60608701519093506200034f81620002d7565b60808701519092506200036281620002d7565b809150509295509295909350565b6000602082840312156200038357600080fd5b815160ff811681146200039557600080fd5b9392505050565b634e487b7160e01b600052604160045260246000fd5b600181811c90821680620003c757607f821691505b602082108103620003e857634e487b7160e01b600052602260045260246000fd5b50919050565b601f8211156200043c57600081815260208120601f850160051c81016020861015620004175750805b601f850160051c820191505b81811015620004385782815560010162000423565b5050505b505050565b81516001600160401b038111156200045d576200045d6200039c565b62000475816200046e8454620003b2565b84620003ee565b602080601f831160018114620004ad5760008415620004945750858301515b600019600386901b1c1916600185901b17855562000438565b600085815260208120601f198616915b82811015620004de57888601518255948401946001909101908401620004bd565b5085821015620004fd5787850151600019600388901b60f8161c191681555b5050505050600190811b01905550565b6000602082840312156200052057600080fd5b815180151581146200039557600080fd5b60008083546200054181620003b2565b600182811680156200055c57600181146200057257620005a3565b60ff1984168752821515830287019450620005a3565b8760005260208060002060005b858110156200059a5781548a8201529084019082016200057f565b50505082870194505b50929695505050505050565b60805160a05160c05160e051610100516101205161014051610160516101805161269f620006746000396000818161095601528181611ca80152611d740152600081816102cf01528181611cd30152611d9f0152600081816107b3015281816110b40152611f5a0152600081816104f4015261200901526000818161082701526119e001526000818161052801528181610e3a01528181610fba0152818161104f015261115101526000610d6401526000610d3401526000610499015261269f6000f3fe6080604052600436106102b15760003560e01c80637ecebe0011610175578063c6e6f592116100dc578063df5af13f11610095578063ea6932b31161006f578063ea6932b314610944578063ef8b30f714610978578063f0fa55a914610998578063fd3c4840146109b857600080fd5b8063df5af13f146108d7578063e00886cb146108ec578063e8dea9241461092457600080fd5b8063c6e6f592146107d5578063ce96cb77146107f5578063d06fcba814610815578063d505accf14610849578063d905777e14610869578063dd62ed3e1461089f57600080fd5b8063b3d7f6b91161012e578063b3d7f6b914610721578063b460af9414610741578063ba08765214610761578063baac874614610781578063c31c9c07146107a1578063c63d75b61461058057600080fd5b80637ecebe001461065f57806383df238a1461068c57806394bf804d146106ac57806395d89b41146106cc57806399940ece146106e1578063a9059cbb1461070157600080fd5b8063313ce56711610219578063402d267d116101d2578063402d267d146105805780634585e33b146105a25780634cdad506146105c45780636e04ff0d146105e45780636e553f651461061257806370a082311461063257600080fd5b8063313ce567146104875780633644e515146104cd57806337e63bef146104e257806338d52e0f146105165780633e032a3b1461054a5780633fc8cef31461056057600080fd5b806313dd495b1161026b57806313dd495b146103be57806318160ddd146103f65780631b6b6d231461040c578063218751b21461043457806323b872dd146104545780632d2da8061461047457600080fd5b806268c4e5146102bd57806301e1d1141461030957806306fdde031461032c57806307a2d13a1461034e578063095ea7b31461036e5780630a28a4771461039e57600080fd5b366102b857005b600080fd5b3480156102c957600080fd5b506102f17f000000000000000000000000000000000000000000000000000000000000000081565b604051600f9190910b81526020015b60405180910390f35b34801561031557600080fd5b5061031e6109e5565b604051908152602001610300565b34801561033857600080fd5b50610341610a57565b6040516103009190612086565b34801561035a57600080fd5b5061031e610369366004612099565b610ae5565b34801561037a57600080fd5b5061038e6103893660046120ca565b610b12565b6040519015158152602001610300565b3480156103aa57600080fd5b5061031e6103b9366004612099565b610b7f565b3480156103ca57600080fd5b506007546103de906001600160a01b031681565b6040516001600160a01b039091168152602001610300565b34801561040257600080fd5b5061031e60025481565b34801561041857600080fd5b506103de73326c977e6efc84e512bb9c30f76e30c160ed06fb81565b34801561044057600080fd5b50600a546103de906001600160a01b031681565b34801561046057600080fd5b5061038e61046f3660046120f6565b610b9f565b61031e610482366004612137565b610c7f565b34801561049357600080fd5b506104bb7f000000000000000000000000000000000000000000000000000000000000000081565b60405160ff9091168152602001610300565b3480156104d957600080fd5b5061031e610d30565b3480156104ee57600080fd5b5061031e7f000000000000000000000000000000000000000000000000000000000000000081565b34801561052257600080fd5b506103de7f000000000000000000000000000000000000000000000000000000000000000081565b34801561055657600080fd5b5061031e600b5481565b34801561056c57600080fd5b506009546103de906001600160a01b031681565b34801561058c57600080fd5b5061031e61059b366004612137565b5060001990565b3480156105ae57600080fd5b506105c26105bd366004612154565b610d86565b005b3480156105d057600080fd5b5061031e6105df366004612099565b610dca565b3480156105f057600080fd5b506106046105ff366004612154565b610dd5565b6040516103009291906121c6565b34801561061e57600080fd5b5061031e61062d3660046121e1565b610dfc565b34801561063e57600080fd5b5061031e61064d366004612137565b60036020526000908152604090205481565b34801561066b57600080fd5b5061031e61067a366004612137565b60056020526000908152604090205481565b34801561069857600080fd5b506105c26106a7366004612224565b610f1a565b3480156106b857600080fd5b5061031e6106c73660046121e1565b611137565b3480156106d857600080fd5b50610341611231565b3480156106ed57600080fd5b506008546103de906001600160a01b031681565b34801561070d57600080fd5b5061038e61071c3660046120ca565b61123e565b34801561072d57600080fd5b5061031e61073c366004612099565b6112a4565b34801561074d57600080fd5b5061031e61075c366004612269565b6112c3565b34801561076d57600080fd5b5061031e61077c366004612269565b6113a8565b34801561078d57600080fd5b50600d546103de906001600160a01b031681565b3480156107ad57600080fd5b506103de7f000000000000000000000000000000000000000000000000000000000000000081565b3480156107e157600080fd5b5061031e6107f0366004612099565b61149f565b34801561080157600080fd5b5061031e610810366004612137565b6114bf565b34801561082157600080fd5b506103de7f000000000000000000000000000000000000000000000000000000000000000081565b34801561085557600080fd5b506105c26108643660046122ab565b6114e1565b34801561087557600080fd5b5061031e610884366004612137565b6001600160a01b031660009081526003602052604090205490565b3480156108ab57600080fd5b5061031e6108ba366004612322565b600460209081526000928352604080842090915290825290205481565b3480156108e357600080fd5b5061034161172a565b3480156108f857600080fd5b5061031e6109073660046120ca565b600f60209081526000928352604080842090915290825290205481565b34801561093057600080fd5b506105c261093f366004612137565b611737565b34801561095057600080fd5b506102f17f000000000000000000000000000000000000000000000000000000000000000081565b34801561098457600080fd5b5061031e610993366004612099565b611784565b3480156109a457600080fd5b506105c26109b3366004612099565b61178f565b3480156109c457600080fd5b5061031e6109d3366004612137565b600e6020526000908152604090205481565b6008546040516370a0823160e01b81523060048201526000916001600160a01b0316906370a0823190602401602060405180830381865afa158015610a2e573d6000803e3d6000fd5b505050506040513d601f19601f82011682018060405250810190610a529190612350565b905090565b60008054610a6490612369565b80601f0160208091040260200160405190810160405280929190818152602001828054610a9090612369565b8015610add5780601f10610ab257610100808354040283529160200191610add565b820191906000526020600020905b815481529060010190602001808311610ac057829003601f168201915b505050505081565b6002546000908015610b0957610b04610afc6109e5565b8490836117ee565b610b0b565b825b9392505050565b3360008181526004602090815260408083206001600160a01b038716808552925280832085905551919290917f8c5be1e5ebec7d5bd14f71427d1e84f3dd0314c0f7b2291e5b200ac8c7c3b92590610b6d9086815260200190565b60405180910390a35060015b92915050565b6002546000908015610b0957610b0481610b976109e5565b85919061180c565b6001600160a01b03831660009081526004602090815260408083203384529091528120546000198114610bfb57610bd683826123b9565b6001600160a01b03861660009081526004602090815260408083203384529091529020555b6001600160a01b03851660009081526003602052604081208054859290610c239084906123b9565b90915550506001600160a01b038085166000818152600360205260409081902080548701905551909187169060008051602061264a83398151915290610c6c9087815260200190565b60405180910390a3506001949350505050565b600034600003610ca25760405163059a58a160e41b815260040160405180910390fd5b610cab34611784565b905080600003610cd1576040516001622c3a8160e21b0319815260040160405180910390fd5b610cdb8282611832565b60408051348152602081018390526001600160a01b0384169133917fdcbc1c05240f31ff3ad067ef1ee35ce4997762752e3a095284754544f4c709d7910160405180910390a3610d2b348261188c565b919050565b60007f00000000000000000000000000000000000000000000000000000000000000004614610d6157610a526118fc565b507f000000000000000000000000000000000000000000000000000000000000000090565b6007546001600160a01b03163314610db157604051636fb33f1d60e01b815260040160405180910390fd5b610db9611996565b15610dc657610dc66119ae565b5050565b6000610b7982610ae5565b60006060610de1611996565b91506040518060200160405280600081525090509250929050565b6000610e0783611784565b905080600003610e2d576040516001622c3a8160e21b0319815260040160405180910390fd5b610e626001600160a01b037f000000000000000000000000000000000000000000000000000000000000000016333086611bfa565b600954604051632e1a7d4d60e01b8152600481018590526001600160a01b0390911690632e1a7d4d90602401600060405180830381600087803b158015610ea857600080fd5b505af1158015610ebc573d6000803e3d6000fd5b50505050610eca8282611832565b60408051848152602081018390526001600160a01b0384169133917fdcbc1c05240f31ff3ad067ef1ee35ce4997762752e3a095284754544f4c709d7910160405180910390a3610b79838261188c565b6006546001600160a01b03163314610f455760405163eda3689960e01b815260040160405180910390fd5b8262ffffff16600003610f6b576040516346bec1d760e11b815260040160405180910390fd5b62ffffff81161580610f8457506001600160a01b038216155b1561100a576008546040516001600160601b0319606092831b811660208301526001600160e81b031960e887901b1660348301527f000000000000000000000000000000000000000000000000000000000000000090921b9091166037820152604b01604051602081830303815290604052600c90816110049190612430565b50505050565b6008546040516001600160601b0319606092831b811660208301526001600160e81b031960e887811b8216603485015286851b8316603785015285901b16604b8301527f000000000000000000000000000000000000000000000000000000000000000090921b909116604e820152606201604051602081830303815290604052600c90816110999190612430565b5060085460405163095ea7b360e01b81526001600160a01b037f00000000000000000000000000000000000000000000000000000000000000008116600483015260001960248301529091169063095ea7b3906044016020604051808303816000875af115801561110e573d6000803e3d6000fd5b505050506040513d601f19601f8201168201806040525081019061100491906124f0565b505050565b6000611142836112a4565b90506111796001600160a01b037f000000000000000000000000000000000000000000000000000000000000000016333084611bfa565b600954604051632e1a7d4d60e01b8152600481018390526001600160a01b0390911690632e1a7d4d90602401600060405180830381600087803b1580156111bf57600080fd5b505af11580156111d3573d6000803e3d6000fd5b505050506111e18284611832565b60408051848152602081018390526001600160a01b0384169133917fdcbc1c05240f31ff3ad067ef1ee35ce4997762752e3a095284754544f4c709d7910160405180910390a3610b79818461188c565b60018054610a6490612369565b3360009081526003602052604081208054839190839061125f9084906123b9565b90915550506001600160a01b0383166000818152600360205260409081902080548501905551339060008051602061264a83398151915290610b6d9086815260200190565b6002546000908015610b0957610b046112bb6109e5565b84908361180c565b60006112ce84610b7f565b9050336001600160a01b0383161461133e576001600160a01b0382166000908152600460209081526040808320338452909152902054600019811461133c5761131782826123b9565b6001600160a01b03841660009081526004602090815260408083203384529091529020555b505b6113488482611c96565b6113528282611e2c565b60408051858152602081018390526001600160a01b03808516929086169133917ffbde797d201c681b91056529119e0b02407c7bb96a4a2c75c01fc9667232c8db91015b60405180910390a4610b0b8347611e8e565b6000336001600160a01b03831614611418576001600160a01b03821660009081526004602090815260408083203384529091529020546000198114611416576113f185826123b9565b6001600160a01b03841660009081526004602090815260408083203384529091529020555b505b61142184610dca565b9050806000036114435760405162bad95b60e81b815260040160405180910390fd5b61144d8185611c96565b6114578285611e2c565b60408051828152602081018690526001600160a01b03808516929086169133917ffbde797d201c681b91056529119e0b02407c7bb96a4a2c75c01fc9667232c8db9101611396565b6002546000908015610b0957610b04816114b76109e5565b8591906117ee565b6001600160a01b038116600090815260036020526040812054610b7990610ae5565b428410156115365760405162461bcd60e51b815260206004820152601760248201527f5045524d49545f444541444c494e455f4558504952454400000000000000000060448201526064015b60405180910390fd5b60006001611542610d30565b6001600160a01b038a811660008181526005602090815260409182902080546001810190915582517f6e71edae12b1b97f4d1f60370fef10105fa2faae0126114a169c64845d6126c98184015280840194909452938d166060840152608083018c905260a083019390935260c08083018b90528151808403909101815260e08301909152805192019190912061190160f01b6101008301526101028201929092526101228101919091526101420160408051601f198184030181528282528051602091820120600084529083018083525260ff871690820152606081018590526080810184905260a0016020604051602081039080840390855afa15801561164e573d6000803e3d6000fd5b5050604051601f1901519150506001600160a01b038116158015906116845750876001600160a01b0316816001600160a01b0316145b6116c15760405162461bcd60e51b815260206004820152600e60248201526d24a72b20a624a22fa9a4a3a722a960911b604482015260640161152d565b6001600160a01b0390811660009081526004602090815260408083208a8516808552908352928190208990555188815291928a16917f8c5be1e5ebec7d5bd14f71427d1e84f3dd0314c0f7b2291e5b200ac8c7c3b925910160405180910390a350505050505050565b600c8054610a6490612369565b6006546001600160a01b031633146117625760405163eda3689960e01b815260040160405180910390fd5b600d80546001600160a01b0319166001600160a01b0392909216919091179055565b6000610b798261149f565b6006546001600160a01b031633146117ba57604051636fb33f1d60e01b815260040160405180910390fd5b6127108111806117cb575061232881105b156117e95760405163f869dc6360e01b815260040160405180910390fd5b600b55565b600082600019048411830215820261180557600080fd5b5091020490565b600082600019048411830215820261182357600080fd5b50910281810615159190040190565b80600260008282546118449190612512565b90915550506001600160a01b03821660008181526003602090815260408083208054860190555184815260008051602061264a83398151915291015b60405180910390a35050565b60085460405163a1903eab60e01b81523060048201526001600160a01b039091169063a1903eab90849060240160206040518083038185885af11580156118d7573d6000803e3d6000fd5b50505050506040513d601f19601f820116820180604052508101906111329190612350565b60007f8b73c3c69bb8fe3d512ecc4cf759cc79239f7b179b0ffacaa9a75d522b39400f600060405161192e9190612525565b6040805191829003822060208301939093528101919091527fc89efdaa54c0f20c7adf612882df0950f5a951637e0307cdcb4c672f298b8bc660608201524660808201523060a082015260c00160405160208183030381529060405280519060200120905090565b60006201518042106119a85750600190565b50600090565b336000818152600e6020526040908190205490516331a9108f60e11b8152600481018290529091906001600160a01b037f00000000000000000000000000000000000000000000000000000000000000001690636352211e90602401602060405180830381865afa158015611a27573d6000803e3d6000fd5b505050506040513d601f19601f82011682018060405250810190611a4b919061259b565b6001600160a01b031614611a7257604051636fb33f1d60e01b815260040160405180910390fd5b6008546040516370a0823160e01b81523060048201526000916001600160a01b0316906370a0823190602401602060405180830381865afa158015611abb573d6000803e3d6000fd5b505050506040513d601f19601f82011682018060405250810190611adf9190612350565b90506000196000611af08383611edf565b905081811015611b1357604051635e27cd5b60e01b815260040160405180910390fd5b600d546001600160a01b031615611baf57600d5460405163a9059cbb60e01b81526001600160a01b0390911660048201526024810182905273326c977e6efc84e512bb9c30f76e30c160ed06fb9063a9059cbb906044016020604051808303816000875af1158015611b89573d6000803e3d6000fd5b505050506040513d601f19601f82011682018060405250810190611bad91906124f0565b505b60408051338152602081018590529081018290527f5abac59fd365ecec8428cbb6aae507245b507f059ba47c0a5a648f832d3665179060600160405180910390a1611004838261188c565b60006040516323b872dd60e01b81526001600160a01b03851660048201526001600160a01b03841660248201528260448201526020600060648360008a5af13d15601f3d1160016000511416171691505080611c8f5760405162461bcd60e51b81526020600482015260146024820152731514905394d1915497d19493d357d1905253115160621b604482015260640161152d565b5050505050565b600a54604051635e0d443f60e01b81527f0000000000000000000000000000000000000000000000000000000000000000600f90810b60048301527f0000000000000000000000000000000000000000000000000000000000000000900b602482015260448101849052600091611d62916001600160a01b0390911690635e0d443f90606401602060405180830381865afa158015611d39573d6000803e3d6000fd5b505050506040513d601f19601f82011682018060405250810190611d5d9190612350565b612005565b600a54604051630f7c084960e21b81527f0000000000000000000000000000000000000000000000000000000000000000600f90810b60048301527f0000000000000000000000000000000000000000000000000000000000000000900b602482015260448101869052606481018390529192506001600160a01b031690633df02124906084016020604051808303816000875af1158015611e08573d6000803e3d6000fd5b505050506040513d601f19601f820116820180604052508101906110049190612350565b6001600160a01b03821660009081526003602052604081208054839290611e549084906123b9565b90915550506002805482900390556040518181526000906001600160a01b0384169060008051602061264a83398151915290602001611880565b600080600080600085875af19050806111325760405162461bcd60e51b815260206004820152601360248201527211551217d514905394d1915497d19052531151606a1b604482015260640161152d565b6040805160a0810182526008546001600160601b0319606091821b1660c083015273326c977e6efc84e512bb9c30f76e30c160ed06fb60601b60d4830152825160c881840301815260e88301845282523060208301524282840152810184905260808101839052905163c04b8d5960e01b81526000919082907f00000000000000000000000000000000000000000000000000000000000000006001600160a01b03169063c04b8d5990611f979085906004016125b8565b6020604051808303816000875af1158015611fb6573d6000803e3d6000fd5b505050506040513d601f19601f82011682018060405250810190611fda9190612350565b905083811015611ffd57604051635e27cd5b60e01b815260040160405180910390fd5b949350505050565b60007f0000000000000000000000000000000000000000000000000000000000000000600b54836120369190612610565b610b799190612627565b6000815180845260005b818110156120665760208185018101518683018201520161204a565b506000602082860101526020601f19601f83011685010191505092915050565b602081526000610b0b6020830184612040565b6000602082840312156120ab57600080fd5b5035919050565b6001600160a01b03811681146120c757600080fd5b50565b600080604083850312156120dd57600080fd5b82356120e8816120b2565b946020939093013593505050565b60008060006060848603121561210b57600080fd5b8335612116816120b2565b92506020840135612126816120b2565b929592945050506040919091013590565b60006020828403121561214957600080fd5b8135610b0b816120b2565b6000806020838503121561216757600080fd5b823567ffffffffffffffff8082111561217f57600080fd5b818501915085601f83011261219357600080fd5b8135818111156121a257600080fd5b8660208285010111156121b457600080fd5b60209290920196919550909350505050565b8215158152604060208201526000611ffd6040830184612040565b600080604083850312156121f457600080fd5b823591506020830135612206816120b2565b809150509250929050565b803562ffffff81168114610d2b57600080fd5b60008060006060848603121561223957600080fd5b61224284612211565b92506020840135612252816120b2565b915061226060408501612211565b90509250925092565b60008060006060848603121561227e57600080fd5b833592506020840135612290816120b2565b915060408401356122a0816120b2565b809150509250925092565b600080600080600080600060e0888a0312156122c657600080fd5b87356122d1816120b2565b965060208801356122e1816120b2565b95506040880135945060608801359350608088013560ff8116811461230557600080fd5b9699959850939692959460a0840135945060c09093013592915050565b6000806040838503121561233557600080fd5b8235612340816120b2565b91506020830135612206816120b2565b60006020828403121561236257600080fd5b5051919050565b600181811c9082168061237d57607f821691505b60208210810361239d57634e487b7160e01b600052602260045260246000fd5b50919050565b634e487b7160e01b600052601160045260246000fd5b81810381811115610b7957610b796123a3565b634e487b7160e01b600052604160045260246000fd5b601f82111561113257600081815260208120601f850160051c810160208610156124095750805b601f850160051c820191505b8181101561242857828155600101612415565b505050505050565b815167ffffffffffffffff81111561244a5761244a6123cc565b61245e816124588454612369565b846123e2565b602080601f831160018114612493576000841561247b5750858301515b600019600386901b1c1916600185901b178555612428565b600085815260208120601f198616915b828110156124c2578886015182559484019460019091019084016124a3565b50858210156124e05787850151600019600388901b60f8161c191681555b5050505050600190811b01905550565b60006020828403121561250257600080fd5b81518015158114610b0b57600080fd5b80820180821115610b7957610b796123a3565b600080835461253381612369565b6001828116801561254b57600181146125605761258f565b60ff198416875282151583028701945061258f565b8760005260208060002060005b858110156125865781548a82015290840190820161256d565b50505082870194505b50929695505050505050565b6000602082840312156125ad57600080fd5b8151610b0b816120b2565b602081526000825160a060208401526125d460c0840182612040565b905060018060a01b0360208501511660408401526040840151606084015260608401516080840152608084015160a08401528091505092915050565b8082028115828204841417610b7957610b796123a3565b60008261264457634e487b7160e01b600052601260045260246000fd5b50049056feddf252ad1be2c89b69c2b068fc378daa952ba7f163c4a11628f55a4df523b3efa264697066735822122017d59c8aedf4fdffbe1d2c79ae100862bfa8df7b50ebf81cfdb5117b0222257e64736f6c63430008150033",
    "linkReferences": {}
  },
  "methodIdentifiers": {
    "ComputeCaller()": "baac8746",
    "DOMAIN_SEPARATOR()": "3644e515",
    "LINK()": "1b6b6d23",
    "allowance(address,address)": "dd62ed3e",
    "approve(address,uint256)": "095ea7b3",
    "asset()": "38d52e0f",
    "authorizedExecutor()": "13dd495b",
    "balanceOf(address)": "70a08231",
    "checkUpkeep(bytes)": "6e04ff0d",
    "convertToAssets(uint256)": "07a2d13a",
    "convertToShares(uint256)": "c6e6f592",
    "curvePool()": "218751b2",
    "decimals()": "313ce567",
    "deposit(uint256,address)": "6e553f65",
    "depositETH(address)": "2d2da806",
    "ethIndex()": "0068c4e5",
    "maxDeposit(address)": "402d267d",
    "maxMint(address)": "c63d75b6",
    "maxRedeem(address)": "d905777e",
    "maxWithdraw(address)": "ce96cb77",
    "mint(uint256,address)": "94bf804d",
    "name()": "06fdde03",
    "nftIdOwner(address)": "fd3c4840",
    "nftToken()": "d06fcba8",
    "nonces(address)": "7ecebe00",
    "performUpkeep(bytes)": "4585e33b",
    "permit(address,address,uint256,uint256,uint8,bytes32,bytes32)": "d505accf",
    "previewDeposit(uint256)": "ef8b30f7",
    "previewMint(uint256)": "b3d7f6b9",
    "previewRedeem(uint256)": "4cdad506",
    "previewWithdraw(uint256)": "0a28a477",
    "redeem(uint256,address,address)": "ba087652",
    "setComputeCaller(address)": "e8dea924",
    "setRoute(uint24,address,uint24)": "83df238a",
    "setSlippage(uint256)": "f0fa55a9",
    "slippage()": "3e032a3b",
    "slippageFloat()": "37e63bef",
    "stEth()": "99940ece",
    "stEthIndex()": "ea6932b3",
    "swapPath()": "df5af13f",
    "swapRouter()": "c31c9c07",
    "symbol()": "95d89b41",
    "totalAssets()": "01e1d114",
    "totalSupply()": "18160ddd",
    "transfer(address,uint256)": "a9059cbb",
    "transferFrom(address,address,uint256)": "23b872dd",
    "userVaultDeposit(address,uint256)": "e00886cb",
    "weth()": "3fc8cef3",
    "withdraw(uint256,address,address)": "b460af94"
  },
  "id": 46
}